{"abi":[{"type":"constructor","inputs":[{"name":"_tokenX","type":"address","internalType":"address"},{"name":"_tokenY","type":"address","internalType":"address"}],"stateMutability":"nonpayable"},{"type":"function","name":"addLiquidity","inputs":[{"name":"xAmountIn","type":"uint256","internalType":"uint256"},{"name":"yAmountIn","type":"uint256","internalType":"uint256"}],"outputs":[{"name":"lpMinted","type":"uint256","internalType":"uint256"}],"stateMutability":"nonpayable"},{"type":"function","name":"allowance","inputs":[{"name":"owner","type":"address","internalType":"address"},{"name":"spender","type":"address","internalType":"address"}],"outputs":[{"name":"","type":"uint256","internalType":"uint256"}],"stateMutability":"view"},{"type":"function","name":"approve","inputs":[{"name":"spender","type":"address","internalType":"address"},{"name":"value","type":"uint256","internalType":"uint256"}],"outputs":[{"name":"","type":"bool","internalType":"bool"}],"stateMutability":"nonpayable"},{"type":"function","name":"balanceOf","inputs":[{"name":"account","type":"address","internalType":"address"}],"outputs":[{"name":"","type":"uint256","internalType":"uint256"}],"stateMutability":"view"},{"type":"function","name":"decimals","inputs":[],"outputs":[{"name":"","type":"uint8","internalType":"uint8"}],"stateMutability":"view"},{"type":"function","name":"k","inputs":[],"outputs":[{"name":"","type":"uint256","internalType":"uint256"}],"stateMutability":"view"},{"type":"function","name":"name","inputs":[],"outputs":[{"name":"","type":"string","internalType":"string"}],"stateMutability":"view"},{"type":"function","name":"removeLiquidity","inputs":[{"name":"lpAmount","type":"uint256","internalType":"uint256"}],"outputs":[{"name":"xAmount","type":"uint256","internalType":"uint256"},{"name":"yAmount","type":"uint256","internalType":"uint256"}],"stateMutability":"nonpayable"},{"type":"function","name":"swap","inputs":[{"name":"xAmountIn","type":"uint256","internalType":"uint256"},{"name":"yAmountIn","type":"uint256","internalType":"uint256"}],"outputs":[],"stateMutability":"nonpayable"},{"type":"function","name":"symbol","inputs":[],"outputs":[{"name":"","type":"string","internalType":"string"}],"stateMutability":"view"},{"type":"function","name":"tokenX","inputs":[],"outputs":[{"name":"","type":"address","internalType":"address"}],"stateMutability":"view"},{"type":"function","name":"tokenY","inputs":[],"outputs":[{"name":"","type":"address","internalType":"address"}],"stateMutability":"view"},{"type":"function","name":"totalSupply","inputs":[],"outputs":[{"name":"","type":"uint256","internalType":"uint256"}],"stateMutability":"view"},{"type":"function","name":"transfer","inputs":[{"name":"to","type":"address","internalType":"address"},{"name":"value","type":"uint256","internalType":"uint256"}],"outputs":[{"name":"","type":"bool","internalType":"bool"}],"stateMutability":"nonpayable"},{"type":"function","name":"transferFrom","inputs":[{"name":"from","type":"address","internalType":"address"},{"name":"to","type":"address","internalType":"address"},{"name":"value","type":"uint256","internalType":"uint256"}],"outputs":[{"name":"","type":"bool","internalType":"bool"}],"stateMutability":"nonpayable"},{"type":"function","name":"xReserve","inputs":[],"outputs":[{"name":"","type":"uint256","internalType":"uint256"}],"stateMutability":"view"},{"type":"function","name":"yReserve","inputs":[],"outputs":[{"name":"","type":"uint256","internalType":"uint256"}],"stateMutability":"view"},{"type":"event","name":"AddLiquidity","inputs":[{"name":"xAmountIn","type":"uint256","indexed":false,"internalType":"uint256"},{"name":"yAmountIn","type":"uint256","indexed":false,"internalType":"uint256"}],"anonymous":false},{"type":"event","name":"Approval","inputs":[{"name":"owner","type":"address","indexed":true,"internalType":"address"},{"name":"spender","type":"address","indexed":true,"internalType":"address"},{"name":"value","type":"uint256","indexed":false,"internalType":"uint256"}],"anonymous":false},{"type":"event","name":"Swap","inputs":[{"name":"xAmountIn","type":"uint256","indexed":false,"internalType":"uint256"},{"name":"yAmountIn","type":"uint256","indexed":false,"internalType":"uint256"},{"name":"xAmountOut","type":"uint256","indexed":false,"internalType":"uint256"},{"name":"yAmountOut","type":"uint256","indexed":false,"internalType":"uint256"}],"anonymous":false},{"type":"event","name":"Transfer","inputs":[{"name":"from","type":"address","indexed":true,"internalType":"address"},{"name":"to","type":"address","indexed":true,"internalType":"address"},{"name":"value","type":"uint256","indexed":false,"internalType":"uint256"}],"anonymous":false},{"type":"error","name":"ERC20InsufficientAllowance","inputs":[{"name":"spender","type":"address","internalType":"address"},{"name":"allowance","type":"uint256","internalType":"uint256"},{"name":"needed","type":"uint256","internalType":"uint256"}]},{"type":"error","name":"ERC20InsufficientBalance","inputs":[{"name":"sender","type":"address","internalType":"address"},{"name":"balance","type":"uint256","internalType":"uint256"},{"name":"needed","type":"uint256","internalType":"uint256"}]},{"type":"error","name":"ERC20InvalidApprover","inputs":[{"name":"approver","type":"address","internalType":"address"}]},{"type":"error","name":"ERC20InvalidReceiver","inputs":[{"name":"receiver","type":"address","internalType":"address"}]},{"type":"error","name":"ERC20InvalidSender","inputs":[{"name":"sender","type":"address","internalType":"address"}]},{"type":"error","name":"ERC20InvalidSpender","inputs":[{"name":"spender","type":"address","internalType":"address"}]}],"bytecode":{"object":"0x608060405260006005556000600655600060075534801561001f57600080fd5b50604051612c6c380380612c6c833981810160405281019061004191906103c7565b81816040518060400160405280600a81526020017f4d696e69414d4d204c50000000000000000000000000000000000000000000008152506040518060400160405280600781526020017f4d494e492d4c500000000000000000000000000000000000000000000000000081525081600390816100be9190610657565b5080600490816100ce9190610657565b5050505050600073ffffffffffffffffffffffffffffffffffffffff168273ffffffffffffffffffffffffffffffffffffffff1603610142576040517f08c379a000000000000000000000000000000000000000000000000000000000815260040161013990610786565b60405180910390fd5b600073ffffffffffffffffffffffffffffffffffffffff168173ffffffffffffffffffffffffffffffffffffffff16036101b1576040517f08c379a00000000000000000000000000000000000000000000000000000000081526004016101a8906107f2565b60405180910390fd5b8173ffffffffffffffffffffffffffffffffffffffff168173ffffffffffffffffffffffffffffffffffffffff160361021f576040517f08c379a00000000000000000000000000000000000000000000000000000000081526004016102169061085e565b60405180910390fd5b8073ffffffffffffffffffffffffffffffffffffffff168273ffffffffffffffffffffffffffffffffffffffff1610156102da5781600860006101000a81548173ffffffffffffffffffffffffffffffffffffffff021916908373ffffffffffffffffffffffffffffffffffffffff16021790555080600960006101000a81548173ffffffffffffffffffffffffffffffffffffffff021916908373ffffffffffffffffffffffffffffffffffffffff16021790555061035d565b80600860006101000a81548173ffffffffffffffffffffffffffffffffffffffff021916908373ffffffffffffffffffffffffffffffffffffffff16021790555081600960006101000a81548173ffffffffffffffffffffffffffffffffffffffff021916908373ffffffffffffffffffffffffffffffffffffffff1602179055505b505061087e565b600080fd5b600073ffffffffffffffffffffffffffffffffffffffff82169050919050565b600061039482610369565b9050919050565b6103a481610389565b81146103af57600080fd5b50565b6000815190506103c18161039b565b92915050565b600080604083850312156103de576103dd610364565b5b60006103ec858286016103b2565b92505060206103fd858286016103b2565b9150509250929050565b600081519050919050565b7f4e487b7100000000000000000000000000000000000000000000000000000000600052604160045260246000fd5b7f4e487b7100000000000000000000000000000000000000000000000000000000600052602260045260246000fd5b6000600282049050600182168061048857607f821691505b60208210810361049b5761049a610441565b5b50919050565b60008190508160005260206000209050919050565b60006020601f8301049050919050565b600082821b905092915050565b6000600883026105037fffffffffffffffffffffffffffffffffffffffffffffffffffffffffffffffff826104c6565b61050d86836104c6565b95508019841693508086168417925050509392505050565b6000819050919050565b6000819050919050565b600061055461054f61054a84610525565b61052f565b610525565b9050919050565b6000819050919050565b61056e83610539565b61058261057a8261055b565b8484546104d3565b825550505050565b600090565b61059761058a565b6105a2818484610565565b505050565b5b818110156105c6576105bb60008261058f565b6001810190506105a8565b5050565b601f82111561060b576105dc816104a1565b6105e5846104b6565b810160208510156105f4578190505b610608610600856104b6565b8301826105a7565b50505b505050565b600082821c905092915050565b600061062e60001984600802610610565b1980831691505092915050565b6000610647838361061d565b9150826002028217905092915050565b61066082610407565b67ffffffffffffffff81111561067957610678610412565b5b6106838254610470565b61068e8282856105ca565b600060209050601f8311600181146106c157600084156106af578287015190505b6106b9858261063b565b865550610721565b601f1984166106cf866104a1565b60005b828110156106f7578489015182556001820191506020850194506020810190506106d2565b868310156107145784890151610710601f89168261061d565b8355505b6001600288020188555050505b505050505050565b600082825260208201905092915050565b7f746f6b656e582063616e6e6f74206265207a65726f2061646472657373000000600082015250565b6000610770601d83610729565b915061077b8261073a565b602082019050919050565b6000602082019050818103600083015261079f81610763565b9050919050565b7f746f6b656e592063616e6e6f74206265207a65726f2061646472657373000000600082015250565b60006107dc601d83610729565b91506107e7826107a6565b602082019050919050565b6000602082019050818103600083015261080b816107cf565b9050919050565b7f546f6b656e73206d75737420626520646966666572656e740000000000000000600082015250565b6000610848601883610729565b915061085382610812565b602082019050919050565b600060208201905081810360008301526108778161083b565b9050919050565b6123df8061088d6000396000f3fe608060405234801561001057600080fd5b506004361061010b5760003560e01c806399839d66116100a2578063b4f40c6111610071578063b4f40c61146102e5578063b7d19fc414610303578063d96073cf14610321578063dd62ed3e1461033d578063fc4b6b501461036d5761010b565b806399839d66146102365780639c8f9f23146102545780639cd441da14610285578063a9059cbb146102b55761010b565b806323b872dd116100de57806323b872dd1461019a578063313ce567146101ca57806370a08231146101e857806395d89b41146102185761010b565b806306fdde0314610110578063095ea7b31461012e57806316dc165b1461015e57806318160ddd1461017c575b600080fd5b61011861038b565b6040516101259190611a43565b60405180910390f35b61014860048036038101906101439190611afe565b61041d565b6040516101559190611b59565b60405180910390f35b610166610440565b6040516101739190611b83565b60405180910390f35b610184610466565b6040516101919190611bad565b60405180910390f35b6101b460048036038101906101af9190611bc8565b610470565b6040516101c19190611b59565b60405180910390f35b6101d261049f565b6040516101df9190611c37565b60405180910390f35b61020260048036038101906101fd9190611c52565b6104a8565b60405161020f9190611bad565b60405180910390f35b6102206104f0565b60405161022d9190611a43565b60405180910390f35b61023e610582565b60405161024b9190611bad565b60405180910390f35b61026e60048036038101906102699190611c7f565b610588565b60405161027c929190611cac565b60405180910390f35b61029f600480360381019061029a9190611cd5565b610811565b6040516102ac9190611bad565b60405180910390f35b6102cf60048036038101906102ca9190611afe565b610ac4565b6040516102dc9190611b59565b60405180910390f35b6102ed610ae7565b6040516102fa9190611bad565b60405180910390f35b61030b610aed565b6040516103189190611b83565b60405180910390f35b61033b60048036038101906103369190611cd5565b610b13565b005b61035760048036038101906103529190611d15565b611189565b6040516103649190611bad565b60405180910390f35b610375611210565b6040516103829190611bad565b60405180910390f35b60606003805461039a90611d84565b80601f01602080910402602001604051908101604052809291908181526020018280546103c690611d84565b80156104135780601f106103e857610100808354040283529160200191610413565b820191906000526020600020905b8154815290600101906020018083116103f657829003601f168201915b5050505050905090565b600080610428611216565b905061043581858561121e565b600191505092915050565b600860009054906101000a900473ffffffffffffffffffffffffffffffffffffffff1681565b6000600254905090565b60008061047b611216565b9050610488858285611230565b6104938585856112c5565b60019150509392505050565b60006012905090565b60008060008373ffffffffffffffffffffffffffffffffffffffff1673ffffffffffffffffffffffffffffffffffffffff168152602001908152602001600020549050919050565b6060600480546104ff90611d84565b80601f016020809104026020016040519081016040528092919081815260200182805461052b90611d84565b80156105785780601f1061054d57610100808354040283529160200191610578565b820191906000526020600020905b81548152906001019060200180831161055b57829003601f168201915b5050505050905090565b60065481565b600080600083116105ce576040517f08c379a00000000000000000000000000000000000000000000000000000000081526004016105c590611e01565b60405180910390fd5b826105d8336104a8565b1015610619576040517f08c379a000000000000000000000000000000000000000000000000000000000815260040161061090611e6d565b60405180910390fd5b6000600a548460065461062c9190611ebc565b6106369190611f2d565b90506000600a548560075461064b9190611ebc565b6106559190611f2d565b905061066133866113b9565b84600a60008282546106739190611f5e565b92505081905550816006600082825461068c9190611f5e565b9250508190555080600760008282546106a59190611f5e565b925050819055506007546006546106bc9190611ebc565b600581905550600860009054906101000a900473ffffffffffffffffffffffffffffffffffffffff1673ffffffffffffffffffffffffffffffffffffffff1663a9059cbb33846040518363ffffffff1660e01b815260040161071f929190611f92565b6020604051808303816000875af115801561073e573d6000803e3d6000fd5b505050506040513d601f19601f820116820180604052508101906107629190611fe7565b50600960009054906101000a900473ffffffffffffffffffffffffffffffffffffffff1673ffffffffffffffffffffffffffffffffffffffff1663a9059cbb33836040518363ffffffff1660e01b81526004016107c0929190611f92565b6020604051808303816000875af11580156107df573d6000803e3d6000fd5b505050506040513d601f19601f820116820180604052508101906108039190611fe7565b508181935093505050915091565b6000808303610855576040517f08c379a000000000000000000000000000000000000000000000000000000000815260040161084c90612060565b60405180910390fd5b60008203610898576040517f08c379a000000000000000000000000000000000000000000000000000000000815260040161088f90612060565b60405180910390fd5b6000806006541480156108ad57506000600754145b156108c3576108bc84846113c7565b90506108d0565b6108cd84846113e5565b90505b6108da3382611430565b80600a60008282546108ec9190612080565b92505081905550600860009054906101000a900473ffffffffffffffffffffffffffffffffffffffff1673ffffffffffffffffffffffffffffffffffffffff166323b872dd3330876040518463ffffffff1660e01b8152600401610952939291906120b4565b6020604051808303816000875af1158015610971573d6000803e3d6000fd5b505050506040513d601f19601f820116820180604052508101906109959190611fe7565b50600960009054906101000a900473ffffffffffffffffffffffffffffffffffffffff1673ffffffffffffffffffffffffffffffffffffffff166323b872dd3330866040518463ffffffff1660e01b81526004016109f5939291906120b4565b6020604051808303816000875af1158015610a14573d6000803e3d6000fd5b505050506040513d601f19601f82011682018060405250810190610a389190611fe7565b508360066000828254610a4b9190612080565b925050819055508260076000828254610a649190612080565b92505081905550600754600654610a7b9190611ebc565b6005819055507fcb1652de9aeec38545fc281847b3dbfc89aab56dfa907b1ab68466f602c36fb48484604051610ab2929190611cac565b60405180910390a18091505092915050565b600080610acf611216565b9050610adc8185856112c5565b600191505092915050565b60055481565b600960009054906101000a900473ffffffffffffffffffffffffffffffffffffffff1681565b600060055411610b58576040517f08c379a0000000000000000000000000000000000000000000000000000000008152600401610b4f90612137565b60405180910390fd5b6000821480610b675750600081145b610ba6576040517f08c379a0000000000000000000000000000000000000000000000000000000008152600401610b9d906121c9565b60405180910390fd5b60008183610bb49190612080565b03610bf4576040517f08c379a0000000000000000000000000000000000000000000000000000000008152600401610beb90612235565b60405180910390fd5b6006548210610c38576040517f08c379a0000000000000000000000000000000000000000000000000000000008152600401610c2f906122a1565b60405180910390fd5b6007548110610c7c576040517f08c379a0000000000000000000000000000000000000000000000000000000008152600401610c73906122a1565b60405180910390fd5b6000806000841115610ede5760006103e585610c989190611ebc565b9050600060075482610caa9190611ebc565b90506000826103e8600654610cbf9190611ebc565b610cc99190612080565b90508082610cd79190611f2d565b935060008411610d1c576040517f08c379a0000000000000000000000000000000000000000000000000000000008152600401610d139061230d565b60405180910390fd5b6007548410610d60576040517f08c379a0000000000000000000000000000000000000000000000000000000008152600401610d57906122a1565b60405180910390fd5b600860009054906101000a900473ffffffffffffffffffffffffffffffffffffffff1673ffffffffffffffffffffffffffffffffffffffff166323b872dd33308a6040518463ffffffff1660e01b8152600401610dbf939291906120b4565b6020604051808303816000875af1158015610dde573d6000803e3d6000fd5b505050506040513d601f19601f82011682018060405250810190610e029190611fe7565b50600960009054906101000a900473ffffffffffffffffffffffffffffffffffffffff1673ffffffffffffffffffffffffffffffffffffffff1663a9059cbb33866040518363ffffffff1660e01b8152600401610e60929190611f92565b6020604051808303816000875af1158015610e7f573d6000803e3d6000fd5b505050506040513d601f19601f82011682018060405250810190610ea39190611fe7565b508660066000828254610eb69190612080565b925050819055508360076000828254610ecf9190611f5e565b92505081905550505050611130565b60006103e584610eee9190611ebc565b9050600060065482610f009190611ebc565b90506000826103e8600754610f159190611ebc565b610f1f9190612080565b90508082610f2d9190611f2d565b945060008511610f72576040517f08c379a0000000000000000000000000000000000000000000000000000000008152600401610f699061230d565b60405180910390fd5b6006548510610fb6576040517f08c379a0000000000000000000000000000000000000000000000000000000008152600401610fad906122a1565b60405180910390fd5b600960009054906101000a900473ffffffffffffffffffffffffffffffffffffffff1673ffffffffffffffffffffffffffffffffffffffff166323b872dd3330896040518463ffffffff1660e01b8152600401611015939291906120b4565b6020604051808303816000875af1158015611034573d6000803e3d6000fd5b505050506040513d601f19601f820116820180604052508101906110589190611fe7565b50600860009054906101000a900473ffffffffffffffffffffffffffffffffffffffff1673ffffffffffffffffffffffffffffffffffffffff1663a9059cbb33876040518363ffffffff1660e01b81526004016110b6929190611f92565b6020604051808303816000875af11580156110d5573d6000803e3d6000fd5b505050506040513d601f19601f820116820180604052508101906110f99190611fe7565b50846006600082825461110c9190611f5e565b9250508190555085600760008282546111259190612080565b925050819055505050505b6007546006546111409190611ebc565b6005819055507f298c349c742327269dc8de6ad66687767310c948ea309df826f5bd103e19d2078484848460405161117b949392919061232d565b60405180910390a150505050565b6000600160008473ffffffffffffffffffffffffffffffffffffffff1673ffffffffffffffffffffffffffffffffffffffff16815260200190815260200160002060008373ffffffffffffffffffffffffffffffffffffffff1673ffffffffffffffffffffffffffffffffffffffff16815260200190815260200160002054905092915050565b60075481565b600033905090565b61122b838383600161143e565b505050565b600061123c8484611189565b90507fffffffffffffffffffffffffffffffffffffffffffffffffffffffffffffffff8110156112bf57818110156112af578281836040517ffb8f41b20000000000000000000000000000000000000000000000000000000081526004016112a693929190612372565b60405180910390fd5b6112be8484848403600061143e565b5b50505050565b600073ffffffffffffffffffffffffffffffffffffffff168373ffffffffffffffffffffffffffffffffffffffff16036113375760006040517f96c6fd1e00000000000000000000000000000000000000000000000000000000815260040161132e9190611b83565b60405180910390fd5b600073ffffffffffffffffffffffffffffffffffffffff168273ffffffffffffffffffffffffffffffffffffffff16036113a95760006040517fec442f050000000000000000000000000000000000000000000000000000000081526004016113a09190611b83565b60405180910390fd5b6113b4838383611615565b505050565b6113c3828261183a565b5050565b60006113dd82846113d89190611ebc565b6118bc565b905092915050565b6000600654600754846113f89190611ebc565b6114029190611f2d565b821461140d57600080fd5b60065483600a5461141e9190611ebc565b6114289190611f2d565b905092915050565b61143a8282611931565b5050565b600073ffffffffffffffffffffffffffffffffffffffff168473ffffffffffffffffffffffffffffffffffffffff16036114b05760006040517fe602df050000000000000000000000000000000000000000000000000000000081526004016114a79190611b83565b60405180910390fd5b600073ffffffffffffffffffffffffffffffffffffffff168373ffffffffffffffffffffffffffffffffffffffff16036115225760006040517f94280d620000000000000000000000000000000000000000000000000000000081526004016115199190611b83565b60405180910390fd5b81600160008673ffffffffffffffffffffffffffffffffffffffff1673ffffffffffffffffffffffffffffffffffffffff16815260200190815260200160002060008573ffffffffffffffffffffffffffffffffffffffff1673ffffffffffffffffffffffffffffffffffffffff16815260200190815260200160002081905550801561160f578273ffffffffffffffffffffffffffffffffffffffff168473ffffffffffffffffffffffffffffffffffffffff167f8c5be1e5ebec7d5bd14f71427d1e84f3dd0314c0f7b2291e5b200ac8c7c3b925846040516116069190611bad565b60405180910390a35b50505050565b600073ffffffffffffffffffffffffffffffffffffffff168373ffffffffffffffffffffffffffffffffffffffff160361166757806002600082825461165b9190612080565b9250508190555061173a565b60008060008573ffffffffffffffffffffffffffffffffffffffff1673ffffffffffffffffffffffffffffffffffffffff168152602001908152602001600020549050818110156116f3578381836040517fe450d38c0000000000000000000000000000000000000000000000000000000081526004016116ea93929190612372565b60405180910390fd5b8181036000808673ffffffffffffffffffffffffffffffffffffffff1673ffffffffffffffffffffffffffffffffffffffff16815260200190815260200160002081905550505b600073ffffffffffffffffffffffffffffffffffffffff168273ffffffffffffffffffffffffffffffffffffffff160361178357806002600082825403925050819055506117d0565b806000808473ffffffffffffffffffffffffffffffffffffffff1673ffffffffffffffffffffffffffffffffffffffff168152602001908152602001600020600082825401925050819055505b8173ffffffffffffffffffffffffffffffffffffffff168373ffffffffffffffffffffffffffffffffffffffff167fddf252ad1be2c89b69c2b068fc378daa952ba7f163c4a11628f55a4df523b3ef8360405161182d9190611bad565b60405180910390a3505050565b600073ffffffffffffffffffffffffffffffffffffffff168273ffffffffffffffffffffffffffffffffffffffff16036118ac5760006040517f96c6fd1e0000000000000000000000000000000000000000000000000000000081526004016118a39190611b83565b60405180910390fd5b6118b882600083611615565b5050565b60008082036118ce576000905061192c565b600060026001846118df9190612080565b6118e99190611f2d565b905060008390505b8082101561192657819050600282838661190b9190611f2d565b6119159190612080565b61191f9190611f2d565b91506118f1565b80925050505b919050565b600073ffffffffffffffffffffffffffffffffffffffff168273ffffffffffffffffffffffffffffffffffffffff16036119a35760006040517fec442f0500000000000000000000000000000000000000000000000000000000815260040161199a9190611b83565b60405180910390fd5b6119af60008383611615565b5050565b600081519050919050565b600082825260208201905092915050565b60005b838110156119ed5780820151818401526020810190506119d2565b60008484015250505050565b6000601f19601f8301169050919050565b6000611a15826119b3565b611a1f81856119be565b9350611a2f8185602086016119cf565b611a38816119f9565b840191505092915050565b60006020820190508181036000830152611a5d8184611a0a565b905092915050565b600080fd5b600073ffffffffffffffffffffffffffffffffffffffff82169050919050565b6000611a9582611a6a565b9050919050565b611aa581611a8a565b8114611ab057600080fd5b50565b600081359050611ac281611a9c565b92915050565b6000819050919050565b611adb81611ac8565b8114611ae657600080fd5b50565b600081359050611af881611ad2565b92915050565b60008060408385031215611b1557611b14611a65565b5b6000611b2385828601611ab3565b9250506020611b3485828601611ae9565b9150509250929050565b60008115159050919050565b611b5381611b3e565b82525050565b6000602082019050611b6e6000830184611b4a565b92915050565b611b7d81611a8a565b82525050565b6000602082019050611b986000830184611b74565b92915050565b611ba781611ac8565b82525050565b6000602082019050611bc26000830184611b9e565b92915050565b600080600060608486031215611be157611be0611a65565b5b6000611bef86828701611ab3565b9350506020611c0086828701611ab3565b9250506040611c1186828701611ae9565b9150509250925092565b600060ff82169050919050565b611c3181611c1b565b82525050565b6000602082019050611c4c6000830184611c28565b92915050565b600060208284031215611c6857611c67611a65565b5b6000611c7684828501611ab3565b91505092915050565b600060208284031215611c9557611c94611a65565b5b6000611ca384828501611ae9565b91505092915050565b6000604082019050611cc16000830185611b9e565b611cce6020830184611b9e565b9392505050565b60008060408385031215611cec57611ceb611a65565b5b6000611cfa85828601611ae9565b9250506020611d0b85828601611ae9565b9150509250929050565b60008060408385031215611d2c57611d2b611a65565b5b6000611d3a85828601611ab3565b9250506020611d4b85828601611ab3565b9150509250929050565b7f4e487b7100000000000000000000000000000000000000000000000000000000600052602260045260246000fd5b60006002820490506001821680611d9c57607f821691505b602082108103611daf57611dae611d55565b5b50919050565b7f4c5020616d6f756e74206d7573742062652067726561746572207468616e2030600082015250565b6000611deb6020836119be565b9150611df682611db5565b602082019050919050565b60006020820190508181036000830152611e1a81611dde565b9050919050565b7f496e73756666696369656e74204c5020746f6b656e7300000000000000000000600082015250565b6000611e576016836119be565b9150611e6282611e21565b602082019050919050565b60006020820190508181036000830152611e8681611e4a565b9050919050565b7f4e487b7100000000000000000000000000000000000000000000000000000000600052601160045260246000fd5b6000611ec782611ac8565b9150611ed283611ac8565b9250828202611ee081611ac8565b91508282048414831517611ef757611ef6611e8d565b5b5092915050565b7f4e487b7100000000000000000000000000000000000000000000000000000000600052601260045260246000fd5b6000611f3882611ac8565b9150611f4383611ac8565b925082611f5357611f52611efe565b5b828204905092915050565b6000611f6982611ac8565b9150611f7483611ac8565b9250828203905081811115611f8c57611f8b611e8d565b5b92915050565b6000604082019050611fa76000830185611b74565b611fb46020830184611b9e565b9392505050565b611fc481611b3e565b8114611fcf57600080fd5b50565b600081519050611fe181611fbb565b92915050565b600060208284031215611ffd57611ffc611a65565b5b600061200b84828501611fd2565b91505092915050565b7f416d6f756e7473206d7573742062652067726561746572207468616e20300000600082015250565b600061204a601e836119be565b915061205582612014565b602082019050919050565b600060208201905081810360008301526120798161203d565b9050919050565b600061208b82611ac8565b915061209683611ac8565b92508282019050808211156120ae576120ad611e8d565b5b92915050565b60006060820190506120c96000830186611b74565b6120d66020830185611b74565b6120e36040830184611b9e565b949350505050565b7f4e6f206c697175696469747920696e20706f6f6c000000000000000000000000600082015250565b60006121216014836119be565b915061212c826120eb565b602082019050919050565b6000602082019050818103600083015261215081612114565b9050919050565b7f43616e206f6e6c792073776170206f6e6520646972656374696f6e206174206160008201527f2074696d65000000000000000000000000000000000000000000000000000000602082015250565b60006121b36025836119be565b91506121be82612157565b604082019050919050565b600060208201905081810360008301526121e2816121a6565b9050919050565b7f4d7573742073776170206174206c65617374206f6e6520746f6b656e00000000600082015250565b600061221f601c836119be565b915061222a826121e9565b602082019050919050565b6000602082019050818103600083015261224e81612212565b9050919050565b7f496e73756666696369656e74206c697175696469747900000000000000000000600082015250565b600061228b6016836119be565b915061229682612255565b602082019050919050565b600060208201905081810360008301526122ba8161227e565b9050919050565b7f496e73756666696369656e74206f757470757420616d6f756e74000000000000600082015250565b60006122f7601a836119be565b9150612302826122c1565b602082019050919050565b60006020820190508181036000830152612326816122ea565b9050919050565b60006080820190506123426000830187611b9e565b61234f6020830186611b9e565b61235c6040830185611b9e565b6123696060830184611b9e565b95945050505050565b60006060820190506123876000830186611b74565b6123946020830185611b9e565b6123a16040830184611b9e565b94935050505056fea2646970667358221220be9cf455874e89728f3dcb6804c82f379edfe06dc4c646be8f83660fc4355cd064736f6c634300081e0033","linkReferences":{}},"methodIdentifiers":{"addLiquidity(uint256,uint256)":"9cd441da","allowance(address,address)":"dd62ed3e","approve(address,uint256)":"095ea7b3","balanceOf(address)":"70a08231","decimals()":"313ce567","k()":"b4f40c61","name()":"06fdde03","removeLiquidity(uint256)":"9c8f9f23","swap(uint256,uint256)":"d96073cf","symbol()":"95d89b41","tokenX()":"16dc165b","tokenY()":"b7d19fc4","totalSupply()":"18160ddd","transfer(address,uint256)":"a9059cbb","transferFrom(address,address,uint256)":"23b872dd","xReserve()":"99839d66","yReserve()":"fc4b6b50"},"id":29}